{
  "contractName": "RentalMainContract",
  "abi": [
    {
      "inputs": [],
      "payable": false,
      "stateMutability": "nonpayable",
      "type": "constructor"
    },
    {
      "anonymous": false,
      "inputs": [
        {
          "indexed": true,
          "name": "caller",
          "type": "address"
        },
        {
          "indexed": true,
          "name": "rentOfferHash",
          "type": "bytes32"
        }
      ],
      "name": "RentOfferPlaced",
      "type": "event"
    },
    {
      "anonymous": false,
      "inputs": [
        {
          "indexed": true,
          "name": "caller",
          "type": "address"
        },
        {
          "indexed": true,
          "name": "rentOfferHash",
          "type": "bytes32"
        }
      ],
      "name": "RentOfferModified",
      "type": "event"
    },
    {
      "anonymous": false,
      "inputs": [
        {
          "indexed": true,
          "name": "caller",
          "type": "address"
        },
        {
          "indexed": true,
          "name": "registrationStatus",
          "type": "bool"
        }
      ],
      "name": "RegisterRenter",
      "type": "event"
    },
    {
      "anonymous": false,
      "inputs": [
        {
          "indexed": true,
          "name": "caller",
          "type": "address"
        },
        {
          "indexed": true,
          "name": "_arbitratorAddress",
          "type": "address"
        }
      ],
      "name": "ArbitratorAdded",
      "type": "event"
    },
    {
      "anonymous": false,
      "inputs": [
        {
          "indexed": true,
          "name": "caller",
          "type": "address"
        },
        {
          "indexed": true,
          "name": "_arbitratorAddressDeleted",
          "type": "address"
        }
      ],
      "name": "ArbitratorDeleted",
      "type": "event"
    },
    {
      "anonymous": false,
      "inputs": [
        {
          "indexed": true,
          "name": "renterAddress",
          "type": "address"
        },
        {
          "indexed": true,
          "name": "renteeAddress",
          "type": "address"
        },
        {
          "indexed": false,
          "name": "escrowAddress",
          "type": "address"
        },
        {
          "indexed": true,
          "name": "tradeHash",
          "type": "bytes32"
        }
      ],
      "name": "EscrowContractCreatedForTrade",
      "type": "event"
    },
    {
      "constant": false,
      "inputs": [
        {
          "name": "_arbitratorAddress",
          "type": "address"
        }
      ],
      "name": "addArbitrator",
      "outputs": [],
      "payable": false,
      "stateMutability": "nonpayable",
      "type": "function"
    },
    {
      "constant": false,
      "inputs": [
        {
          "name": "_arbitratorAddress",
          "type": "address"
        }
      ],
      "name": "deleteArbitrator",
      "outputs": [],
      "payable": false,
      "stateMutability": "nonpayable",
      "type": "function"
    },
    {
      "constant": false,
      "inputs": [
        {
          "name": "renterAddress",
          "type": "address"
        },
        {
          "name": "renterDetailsHash",
          "type": "bytes32"
        }
      ],
      "name": "registerRenter",
      "outputs": [],
      "payable": false,
      "stateMutability": "nonpayable",
      "type": "function"
    },
    {
      "constant": false,
      "inputs": [
        {
          "name": "offeredQuantity",
          "type": "uint256"
        },
        {
          "name": "startDate",
          "type": "uint256"
        },
        {
          "name": "endDate",
          "type": "uint256"
        },
        {
          "name": "arbitratorAddress",
          "type": "address"
        },
        {
          "name": "placeDetailsHash",
          "type": "bytes32"
        },
        {
          "name": "arbitratorFees",
          "type": "uint256"
        }
      ],
      "name": "placeRentOffer",
      "outputs": [],
      "payable": false,
      "stateMutability": "nonpayable",
      "type": "function"
    },
    {
      "constant": false,
      "inputs": [
        {
          "name": "rentedOfferHash",
          "type": "bytes32"
        },
        {
          "name": "offeredQuantity",
          "type": "uint256"
        },
        {
          "name": "startDate",
          "type": "uint256"
        },
        {
          "name": "endDate",
          "type": "uint256"
        },
        {
          "name": "arbitratorAddress",
          "type": "address"
        },
        {
          "name": "placeDetailsHash",
          "type": "bytes32"
        },
        {
          "name": "arbitratorFees",
          "type": "uint256"
        }
      ],
      "name": "modifyRentOffer",
      "outputs": [],
      "payable": false,
      "stateMutability": "nonpayable",
      "type": "function"
    },
    {
      "constant": false,
      "inputs": [
        {
          "name": "rentedOfferHash",
          "type": "bytes32"
        }
      ],
      "name": "deleteRentOffer",
      "outputs": [],
      "payable": false,
      "stateMutability": "nonpayable",
      "type": "function"
    },
    {
      "constant": true,
      "inputs": [
        {
          "name": "userAddress",
          "type": "address"
        }
      ],
      "name": "isUserARegisteredRenter",
      "outputs": [
        {
          "name": "",
          "type": "bool"
        }
      ],
      "payable": false,
      "stateMutability": "view",
      "type": "function"
    },
    {
      "constant": false,
      "inputs": [
        {
          "name": "rentOfferHash",
          "type": "bytes32"
        },
        {
          "name": "renteesGivenStartDate",
          "type": "uint256"
        },
        {
          "name": "renteesGivenEndDate",
          "type": "uint256"
        }
      ],
      "name": "takeRentOffer",
      "outputs": [],
      "payable": false,
      "stateMutability": "nonpayable",
      "type": "function"
    },
    {
      "constant": false,
      "inputs": [
        {
          "name": "securityDeposit",
          "type": "uint256"
        }
      ],
      "name": "setSecurityDeposit",
      "outputs": [],
      "payable": false,
      "stateMutability": "nonpayable",
      "type": "function"
    }
  ],
  "bytecode": "0x6080604052662386f26fc1000060015534801561001b57600080fd5b50336000806101000a81548173ffffffffffffffffffffffffffffffffffffffff021916908373ffffffffffffffffffffffffffffffffffffffff160217905550613d628061006b6000396000f300608060405260043610610099576000357c0100000000000000000000000000000000000000000000000000000000900463ffffffff16806301fabd751461009e57806352fd64a5146100e1578063672dbadb146101125780637bb165ee1461018b57806380f1e0cb146101d057806386aefcea14610221578063d7735a441461024e578063f27d0afe146102d5578063f3ae2d8214610318575b600080fd5b3480156100aa57600080fd5b506100df600480360381019080803573ffffffffffffffffffffffffffffffffffffffff169060200190929190505050610373565b005b3480156100ed57600080fd5b5061011060048036038101908080356000191690602001909291905050506104dd565b005b34801561011e57600080fd5b50610189600480360381019080803590602001909291908035906020019092919080359060200190929190803573ffffffffffffffffffffffffffffffffffffffff169060200190929190803560001916906020019092919080359060200190929190505050610823565b005b34801561019757600080fd5b506101ce60048036038101908080356000191690602001909291908035906020019092919080359060200190929190505050610e34565b005b3480156101dc57600080fd5b5061021f600480360381019080803573ffffffffffffffffffffffffffffffffffffffff16906020019092919080356000191690602001909291905050506113a2565b005b34801561022d57600080fd5b5061024c60048036038101908080359060200190929190505050611686565b005b34801561025a57600080fd5b506102d36004803603810190808035600019169060200190929190803590602001909291908035906020019092919080359060200190929190803573ffffffffffffffffffffffffffffffffffffffff1690602001909291908035600019169060200190929190803590602001909291905050506116eb565b005b3480156102e157600080fd5b50610316600480360381019080803573ffffffffffffffffffffffffffffffffffffffff169060200190929190505050611ba5565b005b34801561032457600080fd5b50610359600480360381019080803573ffffffffffffffffffffffffffffffffffffffff169060200190929190505050611d94565b604051808215151515815260200191505060405180910390f35b6000809054906101000a900473ffffffffffffffffffffffffffffffffffffffff1673ffffffffffffffffffffffffffffffffffffffff163373ffffffffffffffffffffffffffffffffffffffff161415156103ce57600080fd5b60038190806001815401808255809150509060018203906000526020600020016000909192909190916101000a81548173ffffffffffffffffffffffffffffffffffffffff021916908373ffffffffffffffffffffffffffffffffffffffff16021790555050600160038054905003600960008373ffffffffffffffffffffffffffffffffffffffff1673ffffffffffffffffffffffffffffffffffffffff168152602001908152602001600020819055508073ffffffffffffffffffffffffffffffffffffffff163373ffffffffffffffffffffffffffffffffffffffff167fcec64f8a20e9dec68316fd86389720a5993dc10207fc680b48554ba59214312560405160405180910390a350565b600073ffffffffffffffffffffffffffffffffffffffff1660066000836000191660001916815260200190815260200160002060010160009054906101000a900473ffffffffffffffffffffffffffffffffffffffff1673ffffffffffffffffffffffffffffffffffffffff16141515156105c0576040517f08c379a00000000000000000000000000000000000000000000000000000000081526004018080602001828103825260138152602001807f4e6f20737563682068617368206578697374730000000000000000000000000081525060200191505060405180910390fd5b3373ffffffffffffffffffffffffffffffffffffffff1660066000836000191660001916815260200190815260200160002060010160009054906101000a900473ffffffffffffffffffffffffffffffffffffffff1673ffffffffffffffffffffffffffffffffffffffff161415156106c7576040517f08c379a00000000000000000000000000000000000000000000000000000000081526004018080602001828103825260248152602001807f4f6e6c79206f776e65722063616e2064656c657465207468652072656e74206f81526020017f666665720000000000000000000000000000000000000000000000000000000081525060400191505060405180910390fd5b600060076000836000191660001916815260200190815260200160002080549050141515610783576040517f08c379a000000000000000000000000000000000000000000000000000000000815260040180806020018281038252603b8152602001807f52656e74656420706c616365206578697374732c2063616e6e6f742064656c6581526020017f746520756e74696c2072656e7420697320636f6d706c657465642e000000000081525060400191505060405180910390fd5b6006600082600019166000191681526020019081526020016000206000808201600090556001820160006101000a81549073ffffffffffffffffffffffffffffffffffffffff02191690556002820160006101000a81549073ffffffffffffffffffffffffffffffffffffffff02191690556003820160009055600482016000905560058201600090556006820160009055505061082081611e40565b50565b60003373ffffffffffffffffffffffffffffffffffffffff16600860003373ffffffffffffffffffffffffffffffffffffffff1673ffffffffffffffffffffffffffffffffffffffff16815260200190815260200160002060000160009054906101000a900473ffffffffffffffffffffffffffffffffffffffff1673ffffffffffffffffffffffffffffffffffffffff1614151561092a576040517f08c379a00000000000000000000000000000000000000000000000000000000081526004018080602001828103825260178152602001807f4e6f74206120726567697374657265642072656e74657200000000000000000081525060200191505060405180910390fd5b428611801561093857508442105b15156109ac576040517f08c379a00000000000000000000000000000000000000000000000000000000081526004018080602001828103825260128152602001807f496e76616c6964206461746520656e747279000000000000000000000000000081525060200191505060405180910390fd5b8486101515610a49576040517f08c379a00000000000000000000000000000000000000000000000000000000081526004018080602001828103825260308152602001807f5374617274696e6720646174652063616e6e6f7420626520677265617465722081526020017f7468616e20656e64696e6720646174650000000000000000000000000000000081525060400191505060405180910390fd5b3387878786604051602001808673ffffffffffffffffffffffffffffffffffffffff1673ffffffffffffffffffffffffffffffffffffffff166c010000000000000000000000000281526014018581526020018481526020018381526020018260001916600019168152602001807f53656c6c00000000000000000000000000000000000000000000000000000000815250600401955050505050506040516020818303038152906040526040518082805190602001908083835b602083101515610b295780518252602082019150602081019050602083039250610b04565b6001836020036101000a038019825116818451168082178552505050505050905001915050604051809103902090508260001916600660008360001916600019168152602001908152602001600020600601546000191614151515610c1c576040517f08c379a00000000000000000000000000000000000000000000000000000000081526004018080602001828103825260268152602001807f53616d652072656e74206f666665722063616e6e6f7420626520706c6163656481526020017f207477696365000000000000000000000000000000000000000000000000000081525060400191505060405180910390fd5b86600660008360001916600019168152602001908152602001600020600001819055503360066000836000191660001916815260200190815260200160002060010160006101000a81548173ffffffffffffffffffffffffffffffffffffffff021916908373ffffffffffffffffffffffffffffffffffffffff1602179055508360066000836000191660001916815260200190815260200160002060020160006101000a81548173ffffffffffffffffffffffffffffffffffffffff021916908373ffffffffffffffffffffffffffffffffffffffff16021790555081600660008360001916600019168152602001908152602001600020600301819055508260066000836000191660001916815260200190815260200160002060060181600019169055508560066000836000191660001916815260200190815260200160002060040181905550846006600083600019166000191681526020019081526020016000206005018190555060028190806001815401808255809150509060018203906000526020600020016000909192909190915090600019169055506001600280549050036005600083600019166000191681526020019081526020016000208190555080600019163373ffffffffffffffffffffffffffffffffffffffff167fe2797c5af87b978c88cf117571e1714dee5bb409d59ca33a6650b7bc74d2497360405160405180910390a350505050505050565b600073ffffffffffffffffffffffffffffffffffffffff1660066000856000191660001916815260200190815260200160002060010160009054906101000a900473ffffffffffffffffffffffffffffffffffffffff1673ffffffffffffffffffffffffffffffffffffffff1614151515610f3d576040517f08c379a000000000000000000000000000000000000000000000000000000000815260040180806020018281038252602e8152602001807f4f6666657220646f6573206e6f7420657869737420692e652e2072656e74657281526020017f206164647265737320656d70747900000000000000000000000000000000000081525060400191505060405180910390fd5b6006600084600019166000191681526020019081526020016000206005015442101515610fd2576040517f08c379a00000000000000000000000000000000000000000000000000000000081526004018080602001828103825260208152602001807f4162736f6c75746520656e64206461746520686173206e6f772070617373656481525060200191505060405180910390fd5b4282118015610fe057508042105b151561107a576040517f08c379a00000000000000000000000000000000000000000000000000000000081526004018080602001828103825260228152602001807f446174657320676976656e2062792072656e7465652061726520696e76616c6981526020017f642e00000000000000000000000000000000000000000000000000000000000081525060400191505060405180910390fd5b73__SystemDateTime________________________63b578a75a838360066000886000191660001916815260200190815260200160002060040154600660008960001916600019168152602001908152602001600020600501546040518563ffffffff167c01000000000000000000000000000000000000000000000000000000000281526004018085815260200184815260200183815260200182815260200194505050505060206040518083038186803b15801561113957600080fd5b505af415801561114d573d6000803e3d6000fd5b505050506040513d602081101561116357600080fd5b8101908080519060200190929190505050151561120e576040517f08c379a00000000000000000000000000000000000000000000000000000000081526004018080602001828103825260228152602001807f52616e6765206973206e6f7420617661696c61626c6520696e2074686520726581526020017f6e7400000000000000000000000000000000000000000000000000000000000081525060400191505060405180910390fd5b611219838383611edc565b1561128c576040517f08c379a000000000000000000000000000000000000000000000000000000000815260040180806020018281038252601c8152602001807f446174652072616e67652069732074616b656e20696e206f666665720000000081525060200191505060405180910390fd5b611297838383611fdc565b61139d8360066000866000191660001916815260200190815260200160002060010160009054906101000a900473ffffffffffffffffffffffffffffffffffffffff163360066000886000191660001916815260200190815260200160002060020160009054906101000a900473ffffffffffffffffffffffffffffffffffffffff1660066000896000191660001916815260200190815260200160002060030154600660008a6000191660001916815260200190815260200160002060040154600660008b60001916600019168152602001908152602001600020600501548989600660008e60001916600019168152602001908152602001600020600001546120bd565b505050565b3373ffffffffffffffffffffffffffffffffffffffff168273ffffffffffffffffffffffffffffffffffffffff1614151561146b576040517f08c379a00000000000000000000000000000000000000000000000000000000081526004018080602001828103825260298152602001807f43757272656e7420757365722063616e6e6f7420726567697374657220736f6d81526020017f656f6e6520656c7365000000000000000000000000000000000000000000000081525060400191505060405180910390fd5b3373ffffffffffffffffffffffffffffffffffffffff16600860003373ffffffffffffffffffffffffffffffffffffffff1673ffffffffffffffffffffffffffffffffffffffff16815260200190815260200160002060000160009054906101000a900473ffffffffffffffffffffffffffffffffffffffff1673ffffffffffffffffffffffffffffffffffffffff16141561156f576040517f08c379a00000000000000000000000000000000000000000000000000000000081526004018080602001828103825260178152602001807f5573657220416c7265616479205265676973746572656400000000000000000081525060200191505060405180910390fd5b33600860008473ffffffffffffffffffffffffffffffffffffffff1673ffffffffffffffffffffffffffffffffffffffff16815260200190815260200160002060000160006101000a81548173ffffffffffffffffffffffffffffffffffffffff021916908373ffffffffffffffffffffffffffffffffffffffff16021790555080600860008473ffffffffffffffffffffffffffffffffffffffff1673ffffffffffffffffffffffffffffffffffffffff1681526020019081526020016000206001018160001916905550600115153373ffffffffffffffffffffffffffffffffffffffff167f1325ab813c99ed5c2302ba394e05f612da419a49544ed3bbb031244f810441d260405160405180910390a35050565b3373ffffffffffffffffffffffffffffffffffffffff166000809054906101000a900473ffffffffffffffffffffffffffffffffffffffff1673ffffffffffffffffffffffffffffffffffffffff161415156116e157600080fd5b8060018190555050565b6000803373ffffffffffffffffffffffffffffffffffffffff16600660008b6000191660001916815260200190815260200160002060010160009054906101000a900473ffffffffffffffffffffffffffffffffffffffff1673ffffffffffffffffffffffffffffffffffffffff161415156117f5576040517f08c379a00000000000000000000000000000000000000000000000000000000081526004018080602001828103825260258152602001807f4f6e6c79206f776e65722063616e206d6f64696679207468652072656e74206f81526020017f666665722e00000000000000000000000000000000000000000000000000000081525060400191505060405180910390fd5b6000600760008b600060208110151561180a57fe5b1a7f0100000000000000000000000000000000000000000000000000000000000000027effffffffffffffffffffffffffffffffffffffffffffffffffffffffffffff191660001916815260200190815260200160002080549050141515611900576040517f08c379a00000000000000000000000000000000000000000000000000000000081526004018080602001828103825260318152602001807f43616e6e6f74206265206d6f6469666965642064756520746f20697420616c7281526020017f65616479206265696e672072656e74656400000000000000000000000000000081525060400191505060405180910390fd5b33886000898988604051602001808773ffffffffffffffffffffffffffffffffffffffff1673ffffffffffffffffffffffffffffffffffffffff166c010000000000000000000000000281526014018681526020018573ffffffffffffffffffffffffffffffffffffffff1673ffffffffffffffffffffffffffffffffffffffff166c010000000000000000000000000281526014018481526020018381526020018260001916600019168152602001807f4d6f64696679000000000000000000000000000000000000000000000000000081525060060196505050505050506040516020818303038152906040526040518082805190602001908083835b602083101515611a2457805182526020820191506020810190506020830392506119ff565b6001836020036101000a038019825116818451168082178552505050505050905001915050604051809103902091506006600083600019166000191681526020019081526020016000209050878160000181905550338160010160006101000a81548173ffffffffffffffffffffffffffffffffffffffff021916908373ffffffffffffffffffffffffffffffffffffffff160217905550848160020160006101000a81548173ffffffffffffffffffffffffffffffffffffffff021916908373ffffffffffffffffffffffffffffffffffffffff16021790555082816003018190555081816006018160001916905550816002600560008c6000191660001916815260200190815260200160002054815481101515611b4057fe5b90600052602060002001816000191690555081600019163373ffffffffffffffffffffffffffffffffffffffff167f6d9a80c0943323aa80281eaa5bc84443a23edc628c4ceb851f566be778c177a260405160405180910390a3505050505050505050565b60008060009054906101000a900473ffffffffffffffffffffffffffffffffffffffff1673ffffffffffffffffffffffffffffffffffffffff163373ffffffffffffffffffffffffffffffffffffffff16141515611c0257600080fd5b6003600160038054905003815481101515611c1957fe5b9060005260206000200160009054906101000a900473ffffffffffffffffffffffffffffffffffffffff169050806003600960008573ffffffffffffffffffffffffffffffffffffffff1673ffffffffffffffffffffffffffffffffffffffff16815260200190815260200160002054815481101515611c9557fe5b9060005260206000200160006101000a81548173ffffffffffffffffffffffffffffffffffffffff021916908373ffffffffffffffffffffffffffffffffffffffff160217905550600960008373ffffffffffffffffffffffffffffffffffffffff1673ffffffffffffffffffffffffffffffffffffffff168152602001908152602001600020600090556003805480919060019003611d359190612332565b508173ffffffffffffffffffffffffffffffffffffffff163373ffffffffffffffffffffffffffffffffffffffff167ff70f627bfe5ea6298284ba6f7fd8cb82f29f412610c4a0a2f5caac899e88f00f60405160405180910390a35050565b60008073ffffffffffffffffffffffffffffffffffffffff16600860008473ffffffffffffffffffffffffffffffffffffffff1673ffffffffffffffffffffffffffffffffffffffff16815260200190815260200160002060000160009054906101000a900473ffffffffffffffffffffffffffffffffffffffff1673ffffffffffffffffffffffffffffffffffffffff16141515611e365760019050611e3b565b600090505b919050565b60006002600160028054905003815481101515611e5957fe5b9060005260206000200154905080600260056000856000191660001916815260200190815260200160002054815481101515611e9157fe5b906000526020600020018160001916905550600560008360001916600019168152602001908152602001600020600090556002805480919060019003611ed7919061235e565b505050565b60008060006007600087600019166000191681526020019081526020016000209150600090505b8180549050811015611fce578181815481101515611f1d57fe5b9060005260206000209060030201600101548511158015611f5d57508181815481101515611f4757fe5b9060005260206000209060030201600101548411155b80611fb257508181815481101515611f7157fe5b9060005260206000209060030201600201548510158015611fb157508181815481101515611f9b57fe5b9060005260206000209060030201600201548410155b5b1515611fc15760019250611fd3565b8080600101915050611f03565b600092505b50509392505050565b60006007600085600019166000191681526020019081526020016000209050806060604051908101604052803373ffffffffffffffffffffffffffffffffffffffff168152602001858152602001848152509080600181540180825580915050906001820390600052602060002090600302016000909192909190915060008201518160000160006101000a81548173ffffffffffffffffffffffffffffffffffffffff021916908373ffffffffffffffffffffffffffffffffffffffff160217905550602082015181600101556040820151816002015550505050505050565b60008a8a8a8a8a8a8a8a8a8a6001546120d461238a565b808c600019166000191681526020018b73ffffffffffffffffffffffffffffffffffffffff1673ffffffffffffffffffffffffffffffffffffffff1681526020018a73ffffffffffffffffffffffffffffffffffffffff1673ffffffffffffffffffffffffffffffffffffffff1681526020018973ffffffffffffffffffffffffffffffffffffffff1673ffffffffffffffffffffffffffffffffffffffff1681526020018881526020018781526020018681526020018581526020018481526020018381526020018281526020019b505050505050505050505050604051809103906000f0801580156121cc573d6000803e3d6000fd5b50905060048190806001815401808255809150509060018203906000526020600020016000909192909190916101000a81548173ffffffffffffffffffffffffffffffffffffffff021916908373ffffffffffffffffffffffffffffffffffffffff1602179055505080600a60008d6000191660001916815260200190815260200160002060006101000a81548173ffffffffffffffffffffffffffffffffffffffff021916908373ffffffffffffffffffffffffffffffffffffffff1602179055508a600019168973ffffffffffffffffffffffffffffffffffffffff168b73ffffffffffffffffffffffffffffffffffffffff167f5a704a4083985e3ad54f89dcc483866d1b6a81f9a98fb4b66c2402908ad1588a84604051808273ffffffffffffffffffffffffffffffffffffffff1673ffffffffffffffffffffffffffffffffffffffff16815260200191505060405180910390a45050505050505050505050565b81548183558181111561235957818360005260206000209182019101612358919061239a565b5b505050565b8154818355818111156123855781836000526020600020918201910161238491906123bf565b5b505050565b604051611952806123e583390190565b6123bc91905b808211156123b85760008160009055506001016123a0565b5090565b90565b6123e191905b808211156123dd5760008160009055506001016123c5565b5090565b90560060806040526000600e60006101000a81548160ff02191690831515021790555034801561002b57600080fd5b50604051610160806119528339810180604052810190808051906020019092919080519060200190929190805190602001909291908051906020019092919080519060200190929190805190602001909291908051906020019092919080519060200190929190805190602001909291908051906020019092919080519060200190929190505050326000806101000a81548173ffffffffffffffffffffffffffffffffffffffff021916908373ffffffffffffffffffffffffffffffffffffffff1602179055508a6001816000191690555089600260006101000a81548173ffffffffffffffffffffffffffffffffffffffff021916908373ffffffffffffffffffffffffffffffffffffffff16021790555088600360006101000a81548173ffffffffffffffffffffffffffffffffffffffff021916908373ffffffffffffffffffffffffffffffffffffffff16021790555087600460006101000a81548173ffffffffffffffffffffffffffffffffffffffff021916908373ffffffffffffffffffffffffffffffffffffffff160217905550866005819055508560068190555084600781905550836008819055508260098190555081600a8190555080600d8190555050505050505050505050506117468061020c6000396000f300608060405260043610610083576000357c0100000000000000000000000000000000000000000000000000000000900463ffffffff1680630137a528146100885780634e1d3bd7146100925780635158c38a1461009c57806363a1584c146100b35780637b8d711d146100bd578063902012f7146100d4578063f2fa79a2146100eb575b600080fd5b610090610102565b005b61009a61059a565b005b3480156100a857600080fd5b506100b16107e5565b005b6100bb610999565b005b3480156100c957600080fd5b506100d2610e31565b005b3480156100e057600080fd5b506100e9611017565b005b3480156100f757600080fd5b506101006113c3565b005b600460009054906101000a900473ffffffffffffffffffffffffffffffffffffffff1673ffffffffffffffffffffffffffffffffffffffff163373ffffffffffffffffffffffffffffffffffffffff161415156101ed576040517f08c379a000000000000000000000000000000000000000000000000000000000815260040180806020018281038252602b8152602001807f4f6e6c792061726269747261746f722063616e20706572666f726d207468657381526020017f652066756e6374696f6e7300000000000000000000000000000000000000000081525060400191505060405180910390fd5b600e60059054906101000a900460ff16151515610298576040517f08c379a00000000000000000000000000000000000000000000000000000000081526004018080602001828103825260288152602001807f41726269747261746f722068617320616c7265616479207369676e656420666f81526020017f722072656e74657200000000000000000000000000000000000000000000000081525060400191505060405180910390fd5b600e60069054906101000a900460ff16151515610343576040517f08c379a00000000000000000000000000000000000000000000000000000000081526004018080602001828103825260298152602001807f41726269747261746f722068617320616c72656164792061677265656420776981526020017f74682072656e746565000000000000000000000000000000000000000000000081525060400191505060405180910390fd5b6005543073ffffffffffffffffffffffffffffffffffffffff1631101515156103d4576040517f08c379a000000000000000000000000000000000000000000000000000000000815260040180806020018281038252601e8152602001807f41726269747261746f722066656520697320696e73756666696369656e74000081525060200191505060405180910390fd5b6103dc6116c0565b600460009054906101000a900473ffffffffffffffffffffffffffffffffffffffff1673ffffffffffffffffffffffffffffffffffffffff166108fc6005543073ffffffffffffffffffffffffffffffffffffffff1631033073ffffffffffffffffffffffffffffffffffffffff1631039081150290604051600060405180830381858888f19350505050158015610478573d6000803e3d6000fd5b50600360009054906101000a900473ffffffffffffffffffffffffffffffffffffffff1673ffffffffffffffffffffffffffffffffffffffff166108fc3073ffffffffffffffffffffffffffffffffffffffff16319081150290604051600060405180830381858888f193505050501580156104f8573d6000803e3d6000fd5b506001600e60066101000a81548160ff02191690831515021790555061051c6116fd565b600260009054906101000a900473ffffffffffffffffffffffffffffffffffffffff1673ffffffffffffffffffffffffffffffffffffffff163373ffffffffffffffffffffffffffffffffffffffff167fabcc054a890a021832edfeff2fc64df9bba80b4517c401ac225bedb295e7830d60405160405180910390a3565b3373ffffffffffffffffffffffffffffffffffffffff16600360009054906101000a900473ffffffffffffffffffffffffffffffffffffffff1673ffffffffffffffffffffffffffffffffffffffff16141515610685576040517f08c379a00000000000000000000000000000000000000000000000000000000081526004018080602001828103825260288152602001807f476976656e206163636f756e742063616e6e6f7420706572666f726d2074686981526020017f7320616374696f6e00000000000000000000000000000000000000000000000081525060400191505060405180910390fd5b34600d54600a540114151561074e576040517f08c379a00000000000000000000000000000000000000000000000000000000081526004018080602001828103825260498152602001807f457870656374656420616e20616d6f756e74206f66206f66666572656420717581526020017f616e7469792c2062757420646f6573206e6f74206d617463682074686520616d81526020017f6f756e742073656e74000000000000000000000000000000000000000000000081525060600191505060405180910390fd5b600d5434033403600b81905550600b543403600c8190555034600260009054906101000a900473ffffffffffffffffffffffffffffffffffffffff1673ffffffffffffffffffffffffffffffffffffffff163373ffffffffffffffffffffffffffffffffffffffff167fa8f0d3d1d6bdb984cdd155d7fca3419d46f168334580d148621f1231d6c4a89460405160405180910390a4565b600e60029054906101000a900460ff16151561088f576040517f08c379a000000000000000000000000000000000000000000000000000000000815260040180806020018281038252602a8152602001807f43616e6e6f742072616973652064697370757465206f6e636520657363726f7781526020017f2068617320656e6465640000000000000000000000000000000000000000000081525060400191505060405180910390fd5b600e60049054906101000a900460ff161515610939576040517f08c379a00000000000000000000000000000000000000000000000000000000081526004018080602001828103825260218152602001807f52656e7465652068617320616c7265616479207261697365642064697370757481526020017f650000000000000000000000000000000000000000000000000000000000000081525060400191505060405180910390fd5b6001600e60036101000a81548160ff0219169083151502179055503373ffffffffffffffffffffffffffffffffffffffff167f1ac0d775da23ad40241ef96e8a28cf211ee21671ae8e261cf28b863fe907b26860405160405180910390a2565b600460009054906101000a900473ffffffffffffffffffffffffffffffffffffffff1673ffffffffffffffffffffffffffffffffffffffff163373ffffffffffffffffffffffffffffffffffffffff16141515610a84576040517f08c379a000000000000000000000000000000000000000000000000000000000815260040180806020018281038252602b8152602001807f4f6e6c792061726269747261746f722063616e20706572666f726d207468657381526020017f652066756e6374696f6e7300000000000000000000000000000000000000000081525060400191505060405180910390fd5b600e60059054906101000a900460ff16151515610b2f576040517f08c379a00000000000000000000000000000000000000000000000000000000081526004018080602001828103825260288152602001807f41726269747261746f722068617320616c7265616479207369676e656420666f81526020017f722072656e74657200000000000000000000000000000000000000000000000081525060400191505060405180910390fd5b600e60069054906101000a900460ff16151515610bda576040517f08c379a00000000000000000000000000000000000000000000000000000000081526004018080602001828103825260298152602001807f41726269747261746f722068617320616c72656164792061677265656420776981526020017f74682072656e746565000000000000000000000000000000000000000000000081525060400191505060405180910390fd5b6005543073ffffffffffffffffffffffffffffffffffffffff163110151515610c6b576040517f08c379a000000000000000000000000000000000000000000000000000000000815260040180806020018281038252601e8152602001807f41726269747261746f722066656520697320696e73756666696369656e74000081525060200191505060405180910390fd5b610c736116c0565b600460009054906101000a900473ffffffffffffffffffffffffffffffffffffffff1673ffffffffffffffffffffffffffffffffffffffff166108fc6005543073ffffffffffffffffffffffffffffffffffffffff1631033073ffffffffffffffffffffffffffffffffffffffff1631039081150290604051600060405180830381858888f19350505050158015610d0f573d6000803e3d6000fd5b50600260009054906101000a900473ffffffffffffffffffffffffffffffffffffffff1673ffffffffffffffffffffffffffffffffffffffff166108fc3073ffffffffffffffffffffffffffffffffffffffff16319081150290604051600060405180830381858888f19350505050158015610d8f573d6000803e3d6000fd5b506001600e60056101000a81548160ff021916908315150217905550610db36116fd565b600260009054906101000a900473ffffffffffffffffffffffffffffffffffffffff1673ffffffffffffffffffffffffffffffffffffffff163373ffffffffffffffffffffffffffffffffffffffff167f0a36c28443e55aeacc078f4bf4cfae26e30f9fadca6a3d78b6ff9a99ad48c1d560405160405180910390a3565b3373ffffffffffffffffffffffffffffffffffffffff16600360009054906101000a900473ffffffffffffffffffffffffffffffffffffffff1673ffffffffffffffffffffffffffffffffffffffff16141515610f1c576040517f08c379a00000000000000000000000000000000000000000000000000000000081526004018080602001828103825260288152602001807f476976656e206163636f756e742063616e6e6f7420706572666f726d2074686981526020017f7320616374696f6e00000000000000000000000000000000000000000000000081525060400191505060405180910390fd5b60095442111515610f95576040517f08c379a00000000000000000000000000000000000000000000000000000000081526004018080602001828103825260168152602001807f52656e7420686173206e6f7420656e646564207965740000000000000000000081525060200191505060405180910390fd5b6001600e60016101000a81548160ff021916908315150217905550600360009054906101000a900473ffffffffffffffffffffffffffffffffffffffff1673ffffffffffffffffffffffffffffffffffffffff167f5f5a065b5f8e483230024cc7fb4d33f9d6cdec45eff6bd94a42aa8d173bf589160405160405180910390a2565b3373ffffffffffffffffffffffffffffffffffffffff16600260009054906101000a900473ffffffffffffffffffffffffffffffffffffffff1673ffffffffffffffffffffffffffffffffffffffff16141515611102576040517f08c379a00000000000000000000000000000000000000000000000000000000081526004018080602001828103825260288152602001807f476976656e206163636f756e742063616e6e6f7420706572666f726d2074686981526020017f7320616374696f6e00000000000000000000000000000000000000000000000081525060400191505060405180910390fd5b600954421115156111a1576040517f08c379a000000000000000000000000000000000000000000000000000000000815260040180806020018281038252602e8152602001807f43616e6e6f7420636f6c6c6563742066756e647320756e74696c2072656e742081526020017f74696d652068617320656e64656400000000000000000000000000000000000081525060400191505060405180910390fd5b600e60019054906101000a900460ff16151561124b576040517f08c379a00000000000000000000000000000000000000000000000000000000081526004018080602001828103825260268152602001807f52656e74656520686173206e6f742072656c656173656420746865206573637281526020017f6f7720796574000000000000000000000000000000000000000000000000000081525060400191505060405180910390fd5b6112536116c0565b600260009054906101000a900473ffffffffffffffffffffffffffffffffffffffff1673ffffffffffffffffffffffffffffffffffffffff166108fc600c549081150290604051600060405180830381858888f193505050501580156112bd573d6000803e3d6000fd5b50600360009054906101000a900473ffffffffffffffffffffffffffffffffffffffff1673ffffffffffffffffffffffffffffffffffffffff166108fc600b549081150290604051600060405180830381858888f19350505050158015611328573d6000803e3d6000fd5b506000600c819055506000600b819055506001600e60026101000a81548160ff02191690831515021790555061135c6116fd565b600260009054906101000a900473ffffffffffffffffffffffffffffffffffffffff1673ffffffffffffffffffffffffffffffffffffffff167fd67645bb2406cd6500fbab34e3de252f27f28343a94962e5171aaed8487350a160405160405180910390a2565b60095442101515611462576040517f08c379a00000000000000000000000000000000000000000000000000000000081526004018080602001828103825260288152602001807f52656e742068617320656e6465642c2063616e6e6f742072616973652064697381526020017f70757465206e6f7700000000000000000000000000000000000000000000000081525060400191505060405180910390fd5b600e60019054906101000a900460ff16151561150c576040517f08c379a000000000000000000000000000000000000000000000000000000000815260040180806020018281038252602b8152602001807f43616e6e6f7420726169736520646973707574652061667465722072656c656181526020017f73696e6720657363726f7700000000000000000000000000000000000000000081525060400191505060405180910390fd5b600e60029054906101000a900460ff1615156115b6576040517f08c379a00000000000000000000000000000000000000000000000000000000081526004018080602001828103825260398152602001807f43616e6e6f7420726169736520646973707574652061667465722072656e746581526020017f722068617320636f6c6c6563746564207468652066756e64730000000000000081525060400191505060405180910390fd5b600e60039054906101000a900460ff161515611660576040517f08c379a00000000000000000000000000000000000000000000000000000000081526004018080602001828103825260218152602001807f52656e7465722068617320616c7265616479207261697365642064697370757481526020017f650000000000000000000000000000000000000000000000000000000000000081525060400191505060405180910390fd5b6001600e60046101000a81548160ff0219169083151502179055503373ffffffffffffffffffffffffffffffffffffffff167f247cbf02d1ddb0a274d3265dca65d0982a4c4821cf9b1fde90a76fdbe3d500a360405160405180910390a2565b600e60009054906101000a900460ff1615156116f6576001600e60006101000a81548160ff0219169083151502179055506116fb565b600080fd5b565b6000600e60006101000a81548160ff0219169083151502179055505600a165627a7a72305820b566b0b89c4813dd30267250818ccb9a395347f0f608b008ef60881bac281b740029a165627a7a72305820cab4242bceee571036393324875c19c95d22b9d9c5cfe3b439e44ec2c5a5de290029",
  "source": "pragma solidity ^0.4.24;\r\n\r\nimport \"./RentalEscrowContract.sol\";\r\n\r\nlibrary SystemDateTime{\r\n    \r\n    function isDateInRange(uint currentDate, uint startDate, uint endDate) public pure returns (bool){\r\n      if(currentDate >= startDate && currentDate <= endDate ) {\r\n          return true ; \r\n      }\r\n      else\r\n      return false;\r\n      \r\n  }\r\n  \r\n    function isDateSubsetInRange(uint startDate, uint endDate, uint absoluteStartDate, uint absoluteEndDate) public pure returns (bool){\r\n      require (absoluteStartDate < absoluteEndDate);\r\n      \r\n      if(absoluteStartDate < startDate && endDate < absoluteEndDate )\r\n        return true ; \r\n      else\r\n        return false;\r\n      \r\n  }\r\n}\r\n\r\ncontract RentalMainContract{\r\n    \r\n    /* Private Variables */\r\n    address private _ownerOfContract;\r\n    uint private _fixedSecurityDeposit = .01 ether;\r\n    \r\n    /* Events */\r\n    event RentOfferPlaced(address indexed caller, bytes32 indexed rentOfferHash);\r\n    event RentOfferModified(address indexed caller, bytes32 indexed rentOfferHash);\r\n    event RegisterRenter(address indexed caller, bool indexed registrationStatus);\r\n    event ArbitratorAdded(address indexed caller, address indexed _arbitratorAddress);\r\n    event ArbitratorDeleted(address indexed caller, address indexed _arbitratorAddressDeleted);\r\n    event EscrowContractCreatedForTrade(address indexed renterAddress, address indexed renteeAddress, \r\n                                        address escrowAddress, bytes32 indexed tradeHash);\r\n    \r\n    /* Models */\r\n    struct RentalOffer{\r\n        uint offeredQuantity;\r\n        address renterAddress;\r\n        address arbitratorAddress;\r\n        uint arbitratorFee;\r\n        uint startDate;\r\n        uint endDate;\r\n        bytes32 placeDetailsHash;\r\n    }\r\n    \r\n    struct RenteeInfo{\r\n        address addressOfRentee;\r\n        uint startTimeOfRent;\r\n        uint endTimeOfRent;\r\n    }\r\n    \r\n    struct RegisteredRenter{\r\n        address addressOfRenter;\r\n        bytes32 renterDetails;\r\n    }\r\n    \r\n    /* List of */\r\n    bytes32[] currentRentOffersHash;\r\n    address[] arbitrators;\r\n    address[] escrowContracts;\r\n    \r\n    /* Mapping */\r\n    // address to position \r\n    mapping (bytes32 => uint) private rentOfferIndexes; \r\n    // Stores individual rent offers w.r.t hash\r\n    mapping(bytes32 => RentalOffer) rentals;\r\n    //Stores info of all the current rentee details of a particular offer\r\n    mapping(bytes32 => RenteeInfo[]) rentalsTaken;\r\n    //Stores all the details of the registered renter;\r\n    mapping(address=> RegisteredRenter) registeredRenter;\r\n    \r\n    mapping (address =>uint) private arbitratorAddressIndexes;\r\n    \r\n    mapping (bytes32 => address) private escrowAddressWithRespectToTradeHash;\r\n    \r\n    /* Modifiers */\r\n    modifier OnlyOwner(){\r\n        require(_ownerOfContract == msg.sender);\r\n        _;\r\n    }\r\n   \r\n    /* Constructor */\r\n    constructor() public{\r\n        _ownerOfContract = msg.sender;\r\n    }\r\n    \r\n    /* Arbitrator Functions */\r\n    function addArbitrator(address _arbitratorAddress) external {\r\n        require(msg.sender == _ownerOfContract);\r\n        arbitrators.push(_arbitratorAddress);\r\n        arbitratorAddressIndexes[_arbitratorAddress] = arbitrators.length-1;\r\n        emit ArbitratorAdded(msg.sender, _arbitratorAddress);\r\n    }\r\n    function deleteArbitrator(address _arbitratorAddress) external {\r\n        require(msg.sender == _ownerOfContract);\r\n        address arbitratorAddressAtLastIndex = arbitrators[arbitrators.length-1];\r\n        arbitrators[arbitratorAddressIndexes[_arbitratorAddress]] = arbitratorAddressAtLastIndex;\r\n        delete arbitratorAddressIndexes[_arbitratorAddress];\r\n        arbitrators.length--;\r\n        emit ArbitratorDeleted(msg.sender, _arbitratorAddress);\r\n    }\r\n    \r\n    /* Renter functions */\r\n    \r\n    function registerRenter(address renterAddress, bytes32 renterDetailsHash) external{\r\n        \r\n        //This is useless i think, just need to ensure that the user cannot register someone else.\r\n        require(renterAddress == msg.sender,\"Current user cannot register someone else\");\r\n        \r\n        //user allready registered\r\n        if(registeredRenter[msg.sender].addressOfRenter == msg.sender){\r\n            //emit RegisterRenter(msg.sender,false);\r\n            revert(\"User Already Registered\");\r\n        }else{\r\n            registeredRenter[renterAddress].addressOfRenter = msg.sender;\r\n            registeredRenter[renterAddress].renterDetails = renterDetailsHash;\r\n            emit RegisterRenter(msg.sender,true);\r\n        }\r\n        \r\n    }\r\n    \r\n    function placeRentOffer(uint offeredQuantity, \r\n                            uint startDate, \r\n                            uint endDate,\r\n                            address arbitratorAddress, \r\n                            bytes32 placeDetailsHash,\r\n                            uint arbitratorFees) external {\r\n                                \r\n        //To check if the offer is placed by a registerd renter                        \r\n        require(registeredRenter[msg.sender].addressOfRenter == msg.sender,\"Not a registered renter\");\r\n        \r\n        //Date validations\r\n        require(startDate > block.timestamp && block.timestamp < endDate,\"Invalid date entry\");\r\n        require(startDate < endDate,\"Starting date cannot be greater than ending date\");\r\n        \r\n        bytes32 rentOfferHash = keccak256(abi.encodePacked(msg.sender, offeredQuantity, startDate, endDate,placeDetailsHash, \"Sell\"));\r\n        \r\n        //If Same order is allready placed then it cannot be placed again\r\n        require(rentals[rentOfferHash].placeDetailsHash != placeDetailsHash,\"Same rent offer cannot be placed twice\");\r\n       \r\n        rentals[rentOfferHash].offeredQuantity = offeredQuantity;\r\n        rentals[rentOfferHash].renterAddress = msg.sender;\r\n        rentals[rentOfferHash].arbitratorAddress = arbitratorAddress;\r\n        rentals[rentOfferHash].arbitratorFee = arbitratorFees;\r\n        rentals[rentOfferHash].placeDetailsHash = placeDetailsHash;\r\n        rentals[rentOfferHash].startDate = startDate;\r\n        rentals[rentOfferHash].endDate = endDate;\r\n        \r\n        //An array that keep tracks of the current rent offers by hash\r\n        currentRentOffersHash.push(rentOfferHash);\r\n        \r\n        // storing the position of Address from currentRentOffersTradeHash\r\n        rentOfferIndexes[rentOfferHash] = currentRentOffersHash.length - 1 ;  \r\n        \r\n        emit RentOfferPlaced(msg.sender, rentOfferHash);\r\n    }\r\n    \r\n\r\n    function modifyRentOffer(bytes32 rentedOfferHash,\r\n                             uint offeredQuantity, \r\n                             uint startDate, \r\n                             uint endDate,\r\n                             address arbitratorAddress, \r\n                             bytes32 placeDetailsHash,\r\n                             uint arbitratorFees) external {\r\n        \r\n        //To check that the owner is modifying the offer    \r\n        require(rentals[rentedOfferHash].renterAddress == msg.sender,\"Only owner can modify the rent offer.\");\r\n        \r\n        //To check whether the place is already rented\r\n        require(rentalsTaken[rentedOfferHash[0]].length == 0,\"Cannot be modified due to it already being rented\");\r\n        \r\n        bytes32 newRentedOfferHash = keccak256(abi.encodePacked(msg.sender, offeredQuantity, address(0), startDate, endDate,placeDetailsHash, \"Modify\"));\r\n            \r\n        RentalOffer storage rentOffer = rentals[newRentedOfferHash];\r\n        rentOffer.offeredQuantity = offeredQuantity;\r\n        rentOffer.renterAddress = msg.sender;\r\n        rentOffer.arbitratorAddress = arbitratorAddress;\r\n        rentOffer.arbitratorFee = arbitratorFees;\r\n        rentOffer.placeDetailsHash = newRentedOfferHash;\r\n        currentRentOffersHash[rentOfferIndexes[rentedOfferHash]] = newRentedOfferHash;\r\n        \r\n        emit RentOfferModified(msg.sender,newRentedOfferHash);\r\n\r\n    }    \r\n    \r\n    function deleteRentOffer(bytes32 rentedOfferHash) external {\r\n        \r\n        //To check whether any hash exists\r\n        require(rentals[rentedOfferHash].renterAddress != address(0),\"No such hash exists\");\r\n        \r\n        require(rentals[rentedOfferHash].renterAddress == msg.sender,\"Only owner can delete the rent offer\");\r\n        //To check whether the place is already rented\r\n        require(rentalsTaken[rentedOfferHash].length == 0,\"Rented place exists, cannot delete until rent is completed.\");\r\n        \r\n        delete rentals[rentedOfferHash];\r\n        deleteRentOfferHash(rentedOfferHash);\r\n        \r\n    }\r\n     \r\n    function deleteRentOfferHash (bytes32 deleteRentOfferTradeHash) private{\r\n        bytes32 rentedHashAtLastIndex = currentRentOffersHash[currentRentOffersHash.length-1];\r\n        currentRentOffersHash[rentOfferIndexes[deleteRentOfferTradeHash]] = rentedHashAtLastIndex ;\r\n        delete rentOfferIndexes[deleteRentOfferTradeHash];\r\n        currentRentOffersHash.length--;\r\n    }\r\n    \r\n    /* Renter Helper functions */\r\n    \r\n    function isUserARegisteredRenter(address userAddress) external view returns(bool){\r\n        if(registeredRenter[userAddress].addressOfRenter != address(0))\r\n            return true;\r\n        return false;\r\n    }\r\n    \r\n    /* Rentee functions */\r\n    \r\n    function takeRentOffer(bytes32 rentOfferHash, uint renteesGivenStartDate, uint renteesGivenEndDate) external{\r\n        \r\n        //Checks whether the renter address is present in the rentals\r\n        require(rentals[rentOfferHash].renterAddress != address(0),\"Offer does not exist i.e. renter address empty\");\r\n        \r\n        //Checks the current time which should be in between absolute start and absolute end date\r\n        require (block.timestamp < rentals[rentOfferHash].endDate,\"Absolute end date has now passed\");\r\n        \r\n        //Checks for proper time given by rentee\r\n        require (renteesGivenStartDate > now && now < renteesGivenEndDate,\"Dates given by rentee are invalid.\");\r\n        \r\n        //Checks the start date and the end date is in range\r\n        if(!(SystemDateTime.isDateSubsetInRange(renteesGivenStartDate,renteesGivenEndDate,rentals[rentOfferHash].startDate,rentals[rentOfferHash].endDate))) revert(\"Range is not available in the rent\");\r\n        \r\n        //Checks whether that same range exists in the rentals that were taken (Very important)\r\n        if(isDateRangeTakenInOffer(rentOfferHash,renteesGivenStartDate,renteesGivenEndDate)) revert(\"Date range is taken in offer\");\r\n        \r\n        makeEntryInRentalsTaken(rentOfferHash,renteesGivenStartDate,renteesGivenEndDate);\r\n        \r\n        //Start Escrow Here\r\n        createEscrowContract(rentOfferHash,\r\n                            rentals[rentOfferHash].renterAddress,\r\n                            msg.sender,\r\n                            rentals[rentOfferHash].arbitratorAddress,\r\n                            rentals[rentOfferHash].arbitratorFee,\r\n                            rentals[rentOfferHash].startDate,\r\n                            rentals[rentOfferHash].endDate,\r\n                            renteesGivenStartDate,\r\n                            renteesGivenEndDate,\r\n                            rentals[rentOfferHash].offeredQuantity);\r\n        \r\n    } \r\n    \r\n    /* Helper Functions */\r\n    \r\n    function createEscrowContract (bytes32 rentOfferHash, \r\n                                   address renterAddress, \r\n                                   address renteeAddress, \r\n                                   address arbitratorAddress, \r\n                                   uint arbitratorFees,\r\n                                   uint startDateOfRent,\r\n                                   uint endDateOfRent,\r\n                                   uint renteesGivenStartDate,\r\n                                   uint renteesGivenEndDate,\r\n                                   uint offeredAmount) private {\r\n                                       \r\n        //Add reusability of escrow addresses here\r\n        \r\n        address escrowAddress = new RentalEscrowContract(rentOfferHash, renterAddress, renteeAddress, \r\n                                                arbitratorAddress, arbitratorFees, startDateOfRent, \r\n                                                endDateOfRent, renteesGivenStartDate,renteesGivenEndDate,\r\n                                                offeredAmount,_fixedSecurityDeposit);\r\n        //Should i send escrow amount (needed eth + security deposit) from here or ...                                        \r\n        \r\n        escrowContracts.push(escrowAddress);\r\n        escrowAddressWithRespectToTradeHash[rentOfferHash] = escrowAddress;\r\n        emit EscrowContractCreatedForTrade(renterAddress, renteeAddress, escrowAddress, rentOfferHash);\r\n    }\r\n    \r\n    function setSecurityDeposit(uint securityDeposit) OnlyOwner external {\r\n        _fixedSecurityDeposit = securityDeposit;\r\n    }\r\n    \r\n    function isDateRangeTakenInOffer(bytes32 rentOfferHash,uint startDate, uint endDate) private view returns (bool){\r\n        RenteeInfo[] storage renteeInfo = rentalsTaken[rentOfferHash];\r\n        for(uint i=0;i < renteeInfo.length; i++){\r\n            if(!((startDate <= renteeInfo[i].startTimeOfRent && endDate <= renteeInfo[i].startTimeOfRent) || \r\n            (startDate >= renteeInfo[i].endTimeOfRent && endDate >= renteeInfo[i].endTimeOfRent)))\r\n                return true;\r\n        }\r\n        return false;\r\n    }\r\n    \r\n    function makeEntryInRentalsTaken(bytes32 rentOfferHash,uint startDate, uint endDate) private{\r\n        RenteeInfo[] storage renteeInfo = rentalsTaken[rentOfferHash];\r\n        renteeInfo.push(RenteeInfo(msg.sender,startDate,endDate));\r\n    }\r\n    \r\n}\r\n\r\n\r\n\r\n/*\r\nDocs:\r\nRole: Renter\r\nWhen a renter places a listing, the required information should be address, currentDate, offered quantity in eth,\r\nstart date, end date, the hash of the place details and the nature of the order i.e. sell or buy\r\n\r\n*/",
  "sourcePath": "D:\\Projects\\Tripnfun\\DecentralizedAirbnb\\Tests\\contracts\\RentalMainContract.sol",
  "compiler": {
    "name": "solc",
    "version": "0.4.24+commit.e67f0147.Emscripten.clang"
  },
  "schemaVersion": "2.0.1",
  "updatedAt": "2018-10-04T07:56:12.010Z"
}