{
  "contractName": "RentalEscrowContract",
  "abi": [
    {
      "inputs": [
        {
          "name": "rentOfferHash",
          "type": "bytes32"
        },
        {
          "name": "renterAddress",
          "type": "address"
        },
        {
          "name": "renteeAddress",
          "type": "address"
        },
        {
          "name": "arbitratorAddress",
          "type": "address"
        },
        {
          "name": "arbitratorFees",
          "type": "uint256"
        },
        {
          "name": "startDateOfRent",
          "type": "uint256"
        },
        {
          "name": "endDateOfRent",
          "type": "uint256"
        },
        {
          "name": "renteesGivenStartDate",
          "type": "uint256"
        },
        {
          "name": "renteesGivenEndDate",
          "type": "uint256"
        },
        {
          "name": "offeredAmount",
          "type": "uint256"
        },
        {
          "name": "fixedSecurityDeposit",
          "type": "uint256"
        }
      ],
      "payable": false,
      "stateMutability": "nonpayable",
      "type": "constructor"
    },
    {
      "anonymous": false,
      "inputs": [
        {
          "indexed": true,
          "name": "caller",
          "type": "address"
        },
        {
          "indexed": true,
          "name": "renterAddress",
          "type": "address"
        },
        {
          "indexed": true,
          "name": "valueReceived",
          "type": "uint256"
        }
      ],
      "name": "RecievedFromRentee",
      "type": "event"
    },
    {
      "anonymous": false,
      "inputs": [
        {
          "indexed": true,
          "name": "caller",
          "type": "address"
        }
      ],
      "name": "EscrowReleasedFromRentee",
      "type": "event"
    },
    {
      "anonymous": false,
      "inputs": [
        {
          "indexed": true,
          "name": "caller",
          "type": "address"
        }
      ],
      "name": "EscrowReleasedFromRenter",
      "type": "event"
    },
    {
      "anonymous": false,
      "inputs": [
        {
          "indexed": true,
          "name": "caller",
          "type": "address"
        }
      ],
      "name": "EscrowAmountCollectedByRenter",
      "type": "event"
    },
    {
      "anonymous": false,
      "inputs": [
        {
          "indexed": true,
          "name": "caller",
          "type": "address"
        }
      ],
      "name": "RenteeHasRaisedDispute",
      "type": "event"
    },
    {
      "anonymous": false,
      "inputs": [
        {
          "indexed": true,
          "name": "caller",
          "type": "address"
        }
      ],
      "name": "RenterHasRaisedDispute",
      "type": "event"
    },
    {
      "anonymous": false,
      "inputs": [
        {
          "indexed": true,
          "name": "caller",
          "type": "address"
        },
        {
          "indexed": true,
          "name": "renterAddress",
          "type": "address"
        }
      ],
      "name": "ArbitratorHasAgreedWithRenter",
      "type": "event"
    },
    {
      "anonymous": false,
      "inputs": [
        {
          "indexed": true,
          "name": "caller",
          "type": "address"
        },
        {
          "indexed": true,
          "name": "renteeAddress",
          "type": "address"
        }
      ],
      "name": "ArbitratorHasAgreedWithRentee",
      "type": "event"
    },
    {
      "constant": false,
      "inputs": [],
      "name": "depositForRentee",
      "outputs": [],
      "payable": true,
      "stateMutability": "payable",
      "type": "function"
    },
    {
      "constant": false,
      "inputs": [],
      "name": "releaseEscrowFundsByRentee",
      "outputs": [],
      "payable": false,
      "stateMutability": "nonpayable",
      "type": "function"
    },
    {
      "constant": false,
      "inputs": [],
      "name": "collectEscrowFundsByRenter",
      "outputs": [],
      "payable": false,
      "stateMutability": "nonpayable",
      "type": "function"
    },
    {
      "constant": false,
      "inputs": [],
      "name": "raiseDisputeByRenter",
      "outputs": [],
      "payable": false,
      "stateMutability": "nonpayable",
      "type": "function"
    },
    {
      "constant": false,
      "inputs": [],
      "name": "raiseDisputeByRentee",
      "outputs": [],
      "payable": false,
      "stateMutability": "nonpayable",
      "type": "function"
    },
    {
      "constant": false,
      "inputs": [],
      "name": "signForRenter",
      "outputs": [],
      "payable": true,
      "stateMutability": "payable",
      "type": "function"
    },
    {
      "constant": false,
      "inputs": [],
      "name": "signForRentee",
      "outputs": [],
      "payable": true,
      "stateMutability": "payable",
      "type": "function"
    }
  ],
  "bytecode": "0x60806040526000600e60006101000a81548160ff02191690831515021790555034801561002b57600080fd5b50604051610160806119528339810180604052810190808051906020019092919080519060200190929190805190602001909291908051906020019092919080519060200190929190805190602001909291908051906020019092919080519060200190929190805190602001909291908051906020019092919080519060200190929190505050326000806101000a81548173ffffffffffffffffffffffffffffffffffffffff021916908373ffffffffffffffffffffffffffffffffffffffff1602179055508a6001816000191690555089600260006101000a81548173ffffffffffffffffffffffffffffffffffffffff021916908373ffffffffffffffffffffffffffffffffffffffff16021790555088600360006101000a81548173ffffffffffffffffffffffffffffffffffffffff021916908373ffffffffffffffffffffffffffffffffffffffff16021790555087600460006101000a81548173ffffffffffffffffffffffffffffffffffffffff021916908373ffffffffffffffffffffffffffffffffffffffff160217905550866005819055508560068190555084600781905550836008819055508260098190555081600a8190555080600d8190555050505050505050505050506117468061020c6000396000f300608060405260043610610083576000357c0100000000000000000000000000000000000000000000000000000000900463ffffffff1680630137a528146100885780634e1d3bd7146100925780635158c38a1461009c57806363a1584c146100b35780637b8d711d146100bd578063902012f7146100d4578063f2fa79a2146100eb575b600080fd5b610090610102565b005b61009a61059a565b005b3480156100a857600080fd5b506100b16107e5565b005b6100bb610999565b005b3480156100c957600080fd5b506100d2610e31565b005b3480156100e057600080fd5b506100e9611017565b005b3480156100f757600080fd5b506101006113c3565b005b600460009054906101000a900473ffffffffffffffffffffffffffffffffffffffff1673ffffffffffffffffffffffffffffffffffffffff163373ffffffffffffffffffffffffffffffffffffffff161415156101ed576040517f08c379a000000000000000000000000000000000000000000000000000000000815260040180806020018281038252602b8152602001807f4f6e6c792061726269747261746f722063616e20706572666f726d207468657381526020017f652066756e6374696f6e7300000000000000000000000000000000000000000081525060400191505060405180910390fd5b600e60059054906101000a900460ff16151515610298576040517f08c379a00000000000000000000000000000000000000000000000000000000081526004018080602001828103825260288152602001807f41726269747261746f722068617320616c7265616479207369676e656420666f81526020017f722072656e74657200000000000000000000000000000000000000000000000081525060400191505060405180910390fd5b600e60069054906101000a900460ff16151515610343576040517f08c379a00000000000000000000000000000000000000000000000000000000081526004018080602001828103825260298152602001807f41726269747261746f722068617320616c72656164792061677265656420776981526020017f74682072656e746565000000000000000000000000000000000000000000000081525060400191505060405180910390fd5b6005543073ffffffffffffffffffffffffffffffffffffffff1631101515156103d4576040517f08c379a000000000000000000000000000000000000000000000000000000000815260040180806020018281038252601e8152602001807f41726269747261746f722066656520697320696e73756666696369656e74000081525060200191505060405180910390fd5b6103dc6116c0565b600460009054906101000a900473ffffffffffffffffffffffffffffffffffffffff1673ffffffffffffffffffffffffffffffffffffffff166108fc6005543073ffffffffffffffffffffffffffffffffffffffff1631033073ffffffffffffffffffffffffffffffffffffffff1631039081150290604051600060405180830381858888f19350505050158015610478573d6000803e3d6000fd5b50600360009054906101000a900473ffffffffffffffffffffffffffffffffffffffff1673ffffffffffffffffffffffffffffffffffffffff166108fc3073ffffffffffffffffffffffffffffffffffffffff16319081150290604051600060405180830381858888f193505050501580156104f8573d6000803e3d6000fd5b506001600e60066101000a81548160ff02191690831515021790555061051c6116fd565b600260009054906101000a900473ffffffffffffffffffffffffffffffffffffffff1673ffffffffffffffffffffffffffffffffffffffff163373ffffffffffffffffffffffffffffffffffffffff167fabcc054a890a021832edfeff2fc64df9bba80b4517c401ac225bedb295e7830d60405160405180910390a3565b3373ffffffffffffffffffffffffffffffffffffffff16600360009054906101000a900473ffffffffffffffffffffffffffffffffffffffff1673ffffffffffffffffffffffffffffffffffffffff16141515610685576040517f08c379a00000000000000000000000000000000000000000000000000000000081526004018080602001828103825260288152602001807f476976656e206163636f756e742063616e6e6f7420706572666f726d2074686981526020017f7320616374696f6e00000000000000000000000000000000000000000000000081525060400191505060405180910390fd5b34600d54600a540114151561074e576040517f08c379a00000000000000000000000000000000000000000000000000000000081526004018080602001828103825260498152602001807f457870656374656420616e20616d6f756e74206f66206f66666572656420717581526020017f616e7469792c2062757420646f6573206e6f74206d617463682074686520616d81526020017f6f756e742073656e74000000000000000000000000000000000000000000000081525060600191505060405180910390fd5b600d5434033403600b81905550600b543403600c8190555034600260009054906101000a900473ffffffffffffffffffffffffffffffffffffffff1673ffffffffffffffffffffffffffffffffffffffff163373ffffffffffffffffffffffffffffffffffffffff167fa8f0d3d1d6bdb984cdd155d7fca3419d46f168334580d148621f1231d6c4a89460405160405180910390a4565b600e60029054906101000a900460ff16151561088f576040517f08c379a000000000000000000000000000000000000000000000000000000000815260040180806020018281038252602a8152602001807f43616e6e6f742072616973652064697370757465206f6e636520657363726f7781526020017f2068617320656e6465640000000000000000000000000000000000000000000081525060400191505060405180910390fd5b600e60049054906101000a900460ff161515610939576040517f08c379a00000000000000000000000000000000000000000000000000000000081526004018080602001828103825260218152602001807f52656e7465652068617320616c7265616479207261697365642064697370757481526020017f650000000000000000000000000000000000000000000000000000000000000081525060400191505060405180910390fd5b6001600e60036101000a81548160ff0219169083151502179055503373ffffffffffffffffffffffffffffffffffffffff167f1ac0d775da23ad40241ef96e8a28cf211ee21671ae8e261cf28b863fe907b26860405160405180910390a2565b600460009054906101000a900473ffffffffffffffffffffffffffffffffffffffff1673ffffffffffffffffffffffffffffffffffffffff163373ffffffffffffffffffffffffffffffffffffffff16141515610a84576040517f08c379a000000000000000000000000000000000000000000000000000000000815260040180806020018281038252602b8152602001807f4f6e6c792061726269747261746f722063616e20706572666f726d207468657381526020017f652066756e6374696f6e7300000000000000000000000000000000000000000081525060400191505060405180910390fd5b600e60059054906101000a900460ff16151515610b2f576040517f08c379a00000000000000000000000000000000000000000000000000000000081526004018080602001828103825260288152602001807f41726269747261746f722068617320616c7265616479207369676e656420666f81526020017f722072656e74657200000000000000000000000000000000000000000000000081525060400191505060405180910390fd5b600e60069054906101000a900460ff16151515610bda576040517f08c379a00000000000000000000000000000000000000000000000000000000081526004018080602001828103825260298152602001807f41726269747261746f722068617320616c72656164792061677265656420776981526020017f74682072656e746565000000000000000000000000000000000000000000000081525060400191505060405180910390fd5b6005543073ffffffffffffffffffffffffffffffffffffffff163110151515610c6b576040517f08c379a000000000000000000000000000000000000000000000000000000000815260040180806020018281038252601e8152602001807f41726269747261746f722066656520697320696e73756666696369656e74000081525060200191505060405180910390fd5b610c736116c0565b600460009054906101000a900473ffffffffffffffffffffffffffffffffffffffff1673ffffffffffffffffffffffffffffffffffffffff166108fc6005543073ffffffffffffffffffffffffffffffffffffffff1631033073ffffffffffffffffffffffffffffffffffffffff1631039081150290604051600060405180830381858888f19350505050158015610d0f573d6000803e3d6000fd5b50600260009054906101000a900473ffffffffffffffffffffffffffffffffffffffff1673ffffffffffffffffffffffffffffffffffffffff166108fc3073ffffffffffffffffffffffffffffffffffffffff16319081150290604051600060405180830381858888f19350505050158015610d8f573d6000803e3d6000fd5b506001600e60056101000a81548160ff021916908315150217905550610db36116fd565b600260009054906101000a900473ffffffffffffffffffffffffffffffffffffffff1673ffffffffffffffffffffffffffffffffffffffff163373ffffffffffffffffffffffffffffffffffffffff167f0a36c28443e55aeacc078f4bf4cfae26e30f9fadca6a3d78b6ff9a99ad48c1d560405160405180910390a3565b3373ffffffffffffffffffffffffffffffffffffffff16600360009054906101000a900473ffffffffffffffffffffffffffffffffffffffff1673ffffffffffffffffffffffffffffffffffffffff16141515610f1c576040517f08c379a00000000000000000000000000000000000000000000000000000000081526004018080602001828103825260288152602001807f476976656e206163636f756e742063616e6e6f7420706572666f726d2074686981526020017f7320616374696f6e00000000000000000000000000000000000000000000000081525060400191505060405180910390fd5b60095442111515610f95576040517f08c379a00000000000000000000000000000000000000000000000000000000081526004018080602001828103825260168152602001807f52656e7420686173206e6f7420656e646564207965740000000000000000000081525060200191505060405180910390fd5b6001600e60016101000a81548160ff021916908315150217905550600360009054906101000a900473ffffffffffffffffffffffffffffffffffffffff1673ffffffffffffffffffffffffffffffffffffffff167f5f5a065b5f8e483230024cc7fb4d33f9d6cdec45eff6bd94a42aa8d173bf589160405160405180910390a2565b3373ffffffffffffffffffffffffffffffffffffffff16600260009054906101000a900473ffffffffffffffffffffffffffffffffffffffff1673ffffffffffffffffffffffffffffffffffffffff16141515611102576040517f08c379a00000000000000000000000000000000000000000000000000000000081526004018080602001828103825260288152602001807f476976656e206163636f756e742063616e6e6f7420706572666f726d2074686981526020017f7320616374696f6e00000000000000000000000000000000000000000000000081525060400191505060405180910390fd5b600954421115156111a1576040517f08c379a000000000000000000000000000000000000000000000000000000000815260040180806020018281038252602e8152602001807f43616e6e6f7420636f6c6c6563742066756e647320756e74696c2072656e742081526020017f74696d652068617320656e64656400000000000000000000000000000000000081525060400191505060405180910390fd5b600e60019054906101000a900460ff16151561124b576040517f08c379a00000000000000000000000000000000000000000000000000000000081526004018080602001828103825260268152602001807f52656e74656520686173206e6f742072656c656173656420746865206573637281526020017f6f7720796574000000000000000000000000000000000000000000000000000081525060400191505060405180910390fd5b6112536116c0565b600260009054906101000a900473ffffffffffffffffffffffffffffffffffffffff1673ffffffffffffffffffffffffffffffffffffffff166108fc600c549081150290604051600060405180830381858888f193505050501580156112bd573d6000803e3d6000fd5b50600360009054906101000a900473ffffffffffffffffffffffffffffffffffffffff1673ffffffffffffffffffffffffffffffffffffffff166108fc600b549081150290604051600060405180830381858888f19350505050158015611328573d6000803e3d6000fd5b506000600c819055506000600b819055506001600e60026101000a81548160ff02191690831515021790555061135c6116fd565b600260009054906101000a900473ffffffffffffffffffffffffffffffffffffffff1673ffffffffffffffffffffffffffffffffffffffff167fd67645bb2406cd6500fbab34e3de252f27f28343a94962e5171aaed8487350a160405160405180910390a2565b60095442101515611462576040517f08c379a00000000000000000000000000000000000000000000000000000000081526004018080602001828103825260288152602001807f52656e742068617320656e6465642c2063616e6e6f742072616973652064697381526020017f70757465206e6f7700000000000000000000000000000000000000000000000081525060400191505060405180910390fd5b600e60019054906101000a900460ff16151561150c576040517f08c379a000000000000000000000000000000000000000000000000000000000815260040180806020018281038252602b8152602001807f43616e6e6f7420726169736520646973707574652061667465722072656c656181526020017f73696e6720657363726f7700000000000000000000000000000000000000000081525060400191505060405180910390fd5b600e60029054906101000a900460ff1615156115b6576040517f08c379a00000000000000000000000000000000000000000000000000000000081526004018080602001828103825260398152602001807f43616e6e6f7420726169736520646973707574652061667465722072656e746581526020017f722068617320636f6c6c6563746564207468652066756e64730000000000000081525060400191505060405180910390fd5b600e60039054906101000a900460ff161515611660576040517f08c379a00000000000000000000000000000000000000000000000000000000081526004018080602001828103825260218152602001807f52656e7465722068617320616c7265616479207261697365642064697370757481526020017f650000000000000000000000000000000000000000000000000000000000000081525060400191505060405180910390fd5b6001600e60046101000a81548160ff0219169083151502179055503373ffffffffffffffffffffffffffffffffffffffff167f247cbf02d1ddb0a274d3265dca65d0982a4c4821cf9b1fde90a76fdbe3d500a360405160405180910390a2565b600e60009054906101000a900460ff1615156116f6576001600e60006101000a81548160ff0219169083151502179055506116fb565b600080fd5b565b6000600e60006101000a81548160ff0219169083151502179055505600a165627a7a72305820b566b0b89c4813dd30267250818ccb9a395347f0f608b008ef60881bac281b740029",
  "source": "pragma solidity ^0.4.24;\r\n\r\ncontract RentalEscrowContract {\r\n    \r\n    /* Variables */\r\n    address private _ownerOfEscrowContract;\r\n    bytes32 private _rentOfferHash;\r\n    address private _renterAddress; \r\n    address private _renteeAddress; \r\n    address private _arbitratorAddress; \r\n    \r\n    uint _arbitratorFees;\r\n    uint _startDateOfRent;\r\n    uint _endDateOfRent;\r\n    uint _renteesGivenStartDate;\r\n    uint _renteesGivenEndDate;\r\n    uint _offeredAmount;\r\n    uint private _lockedSecurityDeposit;\r\n    uint private _lockedRenteeDeposit;\r\n    uint private _fixedSecurityDeposit;\r\n    \r\n    bool private _locked = false;\r\n    bool private _hasRenteeReleasedEscrow;\r\n    bool private _hasRenterCollectedFunds;\r\n    bool private _hasRenterRaisedDispute;\r\n    bool private _hasRenteeRaisedDispute;\r\n    bool private _hasArbitratorAgreedWithRenter;\r\n    bool private _hasArbitratorAgreedWithRentee;\r\n    \r\n    /* Events */\r\n    event RecievedFromRentee(address indexed caller, address indexed renterAddress, uint indexed valueReceived);\r\n    event EscrowReleasedFromRentee(address indexed caller);\r\n    event EscrowReleasedFromRenter(address indexed caller);\r\n    event EscrowAmountCollectedByRenter(address indexed caller);\r\n    event RenteeHasRaisedDispute(address indexed caller);\r\n    event RenterHasRaisedDispute(address indexed caller);\r\n    event ArbitratorHasAgreedWithRenter(address indexed caller, address indexed renterAddress);\r\n    event ArbitratorHasAgreedWithRentee(address indexed caller, address indexed renteeAddress);\r\n    \r\n    /* Constructor */\r\n    constructor(bytes32 rentOfferHash, \r\n                address renterAddress, \r\n                address renteeAddress, \r\n                address arbitratorAddress, \r\n                uint arbitratorFees,\r\n                uint startDateOfRent,\r\n                uint endDateOfRent,\r\n                uint renteesGivenStartDate,\r\n                uint renteesGivenEndDate,\r\n                uint offeredAmount,\r\n                uint fixedSecurityDeposit) public {\r\n        _ownerOfEscrowContract = tx.origin;\r\n        _rentOfferHash = rentOfferHash;\r\n        _renterAddress = renterAddress;\r\n        _renteeAddress = renteeAddress;\r\n        _arbitratorAddress = arbitratorAddress;\r\n        _arbitratorFees = arbitratorFees;\r\n        _startDateOfRent = startDateOfRent;\r\n        _endDateOfRent = endDateOfRent;\r\n        _renteesGivenStartDate = renteesGivenStartDate;\r\n        _renteesGivenEndDate = renteesGivenEndDate;\r\n        _offeredAmount = offeredAmount;\r\n        _fixedSecurityDeposit = fixedSecurityDeposit;\r\n    }\r\n    \r\n    modifier onlyArbitrator(){\r\n        require(msg.sender == _arbitratorAddress,\"Only arbitrator can perform these functions\");\r\n        _;\r\n    }\r\n    \r\n    /* Escrow Functions */\r\n    //Need to audit this, not sure if it works\r\n    function depositForRentee() external payable {\r\n        require(_renteeAddress == msg.sender,\"Given account cannot perform this action\");\r\n        require(_offeredAmount + _fixedSecurityDeposit == msg.value, \"Expected an amount of offered quantiy, but does not match the amount sent\");\r\n        _lockedSecurityDeposit = msg.value - (msg.value - _fixedSecurityDeposit);\r\n        _lockedRenteeDeposit = msg.value - _lockedSecurityDeposit;\r\n        emit RecievedFromRentee(msg.sender, _renterAddress, msg.value);\r\n    }\r\n    \r\n    function releaseEscrowFundsByRentee() external {\r\n        require(_renteeAddress == msg.sender,\"Given account cannot perform this action\");\r\n        require(block.timestamp > _renteesGivenEndDate,\"Rent has not ended yet\");\r\n\r\n        _hasRenteeReleasedEscrow = true;\r\n        \r\n        emit EscrowReleasedFromRentee(_renteeAddress);\r\n    }\r\n    \r\n    function collectEscrowFundsByRenter() external {\r\n        require(_renterAddress == msg.sender,\"Given account cannot perform this action\");\r\n        //Check end time \r\n        require(block.timestamp > _renteesGivenEndDate,\"Cannot collect funds until rent time has ended\");\r\n        //Check if the rentee is satisfied with the outcome\r\n        require(_hasRenteeReleasedEscrow,\"Rentee has not released the escrow yet\");\r\n        \r\n        lock();\r\n        _renterAddress.transfer(_lockedRenteeDeposit);\r\n        _renteeAddress.transfer(_lockedSecurityDeposit);\r\n        _lockedRenteeDeposit = 0;\r\n        _lockedSecurityDeposit = 0;\r\n        _hasRenterCollectedFunds = true;\r\n        unlock();\r\n        \r\n        emit EscrowReleasedFromRenter(_renterAddress);\r\n    }\r\n    \r\n    function raiseDisputeByRenter() external {\r\n        require(_hasRenterCollectedFunds,\"Cannot raise dispute once escrow has ended\");\r\n        \r\n        require(_hasRenteeRaisedDispute,\"Rentee has already raised dispute\");\r\n        _hasRenterRaisedDispute = true;\r\n        emit RenterHasRaisedDispute(msg.sender);\r\n    }\r\n    \r\n    function raiseDisputeByRentee() external {\r\n        //Meaning that after rent has completed, you cannot raise a dispute\r\n        require(block.timestamp < _renteesGivenEndDate,\"Rent has ended, cannot raise dispute now\");\r\n        require(_hasRenteeReleasedEscrow,\"Cannot raise dispute after releasing escrow\");\r\n        require(_hasRenterCollectedFunds,\"Cannot raise dispute after renter has collected the funds\");\r\n        require(_hasRenterRaisedDispute,\"Renter has already raised dispute\");\r\n        \r\n        _hasRenteeRaisedDispute = true;\r\n        \r\n        emit RenteeHasRaisedDispute(msg.sender);\r\n        \r\n    }\r\n    \r\n    /* Arbitrator Functions */\r\n    //Releases the funds given by the rentee to the renter\r\n    function signForRenter() onlyArbitrator external payable {\r\n        require(!(_hasArbitratorAgreedWithRenter),\"Arbitrator has already signed for renter\");\r\n        require(!(_hasArbitratorAgreedWithRentee),\"Arbitrator has already agreed with rentee\");\r\n        require(address(this).balance >= _arbitratorFees,\"Arbitrator fee is insufficient\");\r\n        \r\n        \r\n        \r\n        //Calculations for Renter\r\n        lock();\r\n        _arbitratorAddress.transfer(address(this).balance - (address(this).balance - _arbitratorFees));\r\n        _renterAddress.transfer(address(this).balance);\r\n        _hasArbitratorAgreedWithRenter = true;\r\n        unlock();\r\n        \r\n        emit ArbitratorHasAgreedWithRenter(msg.sender,_renterAddress);\r\n    }\r\n    //Releases the Security deposit submitted by the rentee\r\n    function signForRentee() onlyArbitrator external payable {\r\n        require(!(_hasArbitratorAgreedWithRenter),\"Arbitrator has already signed for renter\");\r\n        require(!(_hasArbitratorAgreedWithRentee),\"Arbitrator has already agreed with rentee\");\r\n        require(address(this).balance >= _arbitratorFees,\"Arbitrator fee is insufficient\");\r\n        \r\n        \r\n        \r\n        //Calculations for rentee\r\n        lock();\r\n        _arbitratorAddress.transfer(address(this).balance - (address(this).balance - _arbitratorFees));\r\n        _renteeAddress.transfer(address(this).balance);\r\n        _hasArbitratorAgreedWithRentee = true;\r\n        unlock();\r\n        \r\n        emit ArbitratorHasAgreedWithRentee(msg.sender,_renterAddress);\r\n        \r\n    }\r\n    \r\n    /* Helper Functions */\r\n    \r\n    function lock() private{\r\n        if(!_locked)\r\n            _locked = true;\r\n        else\r\n            revert();\r\n    }\r\n    \r\n    function unlock() private{\r\n        _locked = false;\r\n    }\r\n    \r\n}",
  "sourcePath": "D:\\Projects\\Tripnfun\\DecentralizedAirbnb\\Tests\\contracts\\RentalEscrowContract.sol",
  "compiler": {
    "name": "solc",
    "version": "0.4.24+commit.e67f0147.Emscripten.clang"
  },
  "schemaVersion": "2.0.1",
  "updatedAt": "2018-10-04T07:56:12.002Z"
}