{
  "contractName": "SystemDateTime",
  "abi": [
    {
      "constant": true,
      "inputs": [
        {
          "name": "currentDate",
          "type": "uint256"
        },
        {
          "name": "startDate",
          "type": "uint256"
        },
        {
          "name": "endDate",
          "type": "uint256"
        }
      ],
      "name": "isDateInRange",
      "outputs": [
        {
          "name": "",
          "type": "bool"
        }
      ],
      "payable": false,
      "stateMutability": "pure",
      "type": "function"
    },
    {
      "constant": true,
      "inputs": [
        {
          "name": "startDate",
          "type": "uint256"
        },
        {
          "name": "endDate",
          "type": "uint256"
        },
        {
          "name": "absoluteStartDate",
          "type": "uint256"
        },
        {
          "name": "absoluteEndDate",
          "type": "uint256"
        }
      ],
      "name": "isDateSubsetInRange",
      "outputs": [
        {
          "name": "",
          "type": "bool"
        }
      ],
      "payable": false,
      "stateMutability": "pure",
      "type": "function"
    }
  ],
  "bytecode": "0x61019b610030600b82828239805160001a6073146000811461002057610022565bfe5b5030600052607381538281f3007300000000000000000000000000000000000000003014608060405260043610610063576000357c0100000000000000000000000000000000000000000000000000000000900463ffffffff168063b578a75a14610068578063dce81aed146100be575b600080fd5b6100a46004803603810190808035906020019092919080359060200190929190803590602001909291908035906020019092919050505061010a565b604051808215151515815260200191505060405180910390f35b6100f0600480360381019080803590602001909291908035906020019092919080359060200190929190505050610143565b604051808215151515815260200191505060405180910390f35b6000818310151561011a57600080fd5b848310801561012857508184105b15610136576001905061013b565b600090505b949350505050565b60008284101580156101555750818411155b156101635760019050610168565b600090505b93925050505600a165627a7a7230582027b1673f429ccf2c327d0fe4d2ce77ffbd644eb74eb697cedab19d8601ae26230029",
  "source": "pragma solidity ^0.4.24;\r\n\r\nlibrary SystemDateTime{\r\n    \r\n    function isDateInRange(uint currentDate, uint startDate, uint endDate) public pure returns (bool){\r\n      if(currentDate >= startDate && currentDate <= endDate ) {\r\n          return true ; \r\n      }\r\n      else\r\n      return false;\r\n      \r\n  }\r\n  \r\n    function isDateSubsetInRange(uint startDate, uint endDate, uint absoluteStartDate, uint absoluteEndDate) public pure returns (bool){\r\n      require (absoluteStartDate < absoluteEndDate);\r\n      \r\n      if(absoluteStartDate < startDate && endDate < absoluteEndDate )\r\n        return true ; \r\n      else\r\n        return false;\r\n      \r\n  }\r\n}",
  "sourcePath": "D:\\Projects\\Tripnfun\\DecentralizedAirbnb\\Tests\\contracts\\SystemDateTime.sol",
  "compiler": {
    "name": "solc",
    "version": "0.4.24+commit.e67f0147.Emscripten.clang"
  },
  "schemaVersion": "2.0.1",
  "updatedAt": "2018-10-04T08:19:18.780Z"
}